{
  "_format": "hh-sol-artifact-1",
  "contractName": "ERC721Universal",
  "sourceName": "contracts/ERC721Universal.sol",
  "abi": [
    {
      "inputs": [],
      "stateMutability": "nonpayable",
      "type": "constructor"
    },
    {
      "inputs": [],
      "name": "BaseURIAlreadyLocked",
      "type": "error"
    },
    {
      "inputs": [
        {
          "internalType": "address",
          "name": "sender",
          "type": "address"
        },
        {
          "internalType": "uint256",
          "name": "tokenId",
          "type": "uint256"
        },
        {
          "internalType": "address",
          "name": "owner",
          "type": "address"
        }
      ],
      "name": "ERC721IncorrectOwner",
      "type": "error"
    },
    {
      "inputs": [
        {
          "internalType": "address",
          "name": "operator",
          "type": "address"
        },
        {
          "internalType": "uint256",
          "name": "tokenId",
          "type": "uint256"
        }
      ],
      "name": "ERC721InsufficientApproval",
      "type": "error"
    },
    {
      "inputs": [
        {
          "internalType": "address",
          "name": "approver",
          "type": "address"
        }
      ],
      "name": "ERC721InvalidApprover",
      "type": "error"
    },
    {
      "inputs": [
        {
          "internalType": "address",
          "name": "operator",
          "type": "address"
        }
      ],
      "name": "ERC721InvalidOperator",
      "type": "error"
    },
    {
      "inputs": [
        {
          "internalType": "address",
          "name": "owner",
          "type": "address"
        }
      ],
      "name": "ERC721InvalidOwner",
      "type": "error"
    },
    {
      "inputs": [
        {
          "internalType": "address",
          "name": "receiver",
          "type": "address"
        }
      ],
      "name": "ERC721InvalidReceiver",
      "type": "error"
    },
    {
      "inputs": [
        {
          "internalType": "address",
          "name": "sender",
          "type": "address"
        }
      ],
      "name": "ERC721InvalidSender",
      "type": "error"
    },
    {
      "inputs": [
        {
          "internalType": "uint256",
          "name": "tokenId",
          "type": "uint256"
        }
      ],
      "name": "ERC721NonexistentToken",
      "type": "error"
    },
    {
      "inputs": [
        {
          "internalType": "uint256",
          "name": "tokenId",
          "type": "uint256"
        }
      ],
      "name": "ERC721UniversalAlreadyTransferred",
      "type": "error"
    },
    {
      "inputs": [],
      "name": "InvalidInitialization",
      "type": "error"
    },
    {
      "inputs": [],
      "name": "NotInitializing",
      "type": "error"
    },
    {
      "inputs": [
        {
          "internalType": "address",
          "name": "owner",
          "type": "address"
        }
      ],
      "name": "OwnableInvalidOwner",
      "type": "error"
    },
    {
      "inputs": [
        {
          "internalType": "address",
          "name": "account",
          "type": "address"
        }
      ],
      "name": "OwnableUnauthorizedAccount",
      "type": "error"
    },
    {
      "anonymous": false,
      "inputs": [
        {
          "indexed": true,
          "internalType": "address",
          "name": "owner",
          "type": "address"
        },
        {
          "indexed": true,
          "internalType": "address",
          "name": "approved",
          "type": "address"
        },
        {
          "indexed": true,
          "internalType": "uint256",
          "name": "tokenId",
          "type": "uint256"
        }
      ],
      "name": "Approval",
      "type": "event"
    },
    {
      "anonymous": false,
      "inputs": [
        {
          "indexed": true,
          "internalType": "address",
          "name": "owner",
          "type": "address"
        },
        {
          "indexed": true,
          "internalType": "address",
          "name": "operator",
          "type": "address"
        },
        {
          "indexed": false,
          "internalType": "bool",
          "name": "approved",
          "type": "bool"
        }
      ],
      "name": "ApprovalForAll",
      "type": "event"
    },
    {
      "anonymous": false,
      "inputs": [
        {
          "indexed": false,
          "internalType": "uint64",
          "name": "version",
          "type": "uint64"
        }
      ],
      "name": "Initialized",
      "type": "event"
    },
    {
      "anonymous": false,
      "inputs": [
        {
          "indexed": false,
          "internalType": "string",
          "name": "baseURI",
          "type": "string"
        }
      ],
      "name": "LockedBaseURI",
      "type": "event"
    },
    {
      "anonymous": false,
      "inputs": [
        {
          "indexed": false,
          "internalType": "address",
          "name": "newContractAddress",
          "type": "address"
        },
        {
          "indexed": false,
          "internalType": "string",
          "name": "baseURI",
          "type": "string"
        },
        {
          "indexed": false,
          "internalType": "string",
          "name": "name",
          "type": "string"
        },
        {
          "indexed": false,
          "internalType": "string",
          "name": "symbol",
          "type": "string"
        }
      ],
      "name": "NewERC721Universal",
      "type": "event"
    },
    {
      "anonymous": false,
      "inputs": [
        {
          "indexed": true,
          "internalType": "address",
          "name": "previousOwner",
          "type": "address"
        },
        {
          "indexed": true,
          "internalType": "address",
          "name": "newOwner",
          "type": "address"
        }
      ],
      "name": "OwnershipTransferred",
      "type": "event"
    },
    {
      "anonymous": false,
      "inputs": [
        {
          "indexed": true,
          "internalType": "address",
          "name": "from",
          "type": "address"
        },
        {
          "indexed": true,
          "internalType": "address",
          "name": "to",
          "type": "address"
        },
        {
          "indexed": true,
          "internalType": "uint256",
          "name": "tokenId",
          "type": "uint256"
        }
      ],
      "name": "Transfer",
      "type": "event"
    },
    {
      "anonymous": false,
      "inputs": [
        {
          "indexed": false,
          "internalType": "string",
          "name": "newBaseURI",
          "type": "string"
        }
      ],
      "name": "UpdatedBaseURI",
      "type": "event"
    },
    {
      "anonymous": false,
      "inputs": [
        {
          "indexed": false,
          "internalType": "string",
          "name": "newPrefix",
          "type": "string"
        },
        {
          "indexed": false,
          "internalType": "string",
          "name": "newSuffix",
          "type": "string"
        }
      ],
      "name": "UpdatedTokenIdAffixes",
      "type": "event"
    },
    {
      "inputs": [],
      "name": "ERC721UniversalVersion",
      "outputs": [
        {
          "internalType": "uint32",
          "name": "",
          "type": "uint32"
        }
      ],
      "stateMutability": "view",
      "type": "function"
    },
    {
      "inputs": [
        {
          "internalType": "address",
          "name": "to",
          "type": "address"
        },
        {
          "internalType": "uint256",
          "name": "tokenId",
          "type": "uint256"
        }
      ],
      "name": "approve",
      "outputs": [],
      "stateMutability": "nonpayable",
      "type": "function"
    },
    {
      "inputs": [
        {
          "internalType": "address",
          "name": "_owner",
          "type": "address"
        }
      ],
      "name": "balanceOf",
      "outputs": [
        {
          "internalType": "uint256",
          "name": "",
          "type": "uint256"
        }
      ],
      "stateMutability": "pure",
      "type": "function"
    },
    {
      "inputs": [],
      "name": "baseURI",
      "outputs": [
        {
          "internalType": "string",
          "name": "",
          "type": "string"
        }
      ],
      "stateMutability": "view",
      "type": "function"
    },
    {
      "inputs": [
        {
          "internalType": "uint256",
          "name": "tokenId",
          "type": "uint256"
        }
      ],
      "name": "broadcastMint",
      "outputs": [],
      "stateMutability": "nonpayable",
      "type": "function"
    },
    {
      "inputs": [
        {
          "internalType": "uint256[]",
          "name": "tokenIds",
          "type": "uint256[]"
        }
      ],
      "name": "broadcastMintBatch",
      "outputs": [],
      "stateMutability": "nonpayable",
      "type": "function"
    },
    {
      "inputs": [
        {
          "internalType": "uint256",
          "name": "tokenId",
          "type": "uint256"
        }
      ],
      "name": "broadcastSelfTransfer",
      "outputs": [],
      "stateMutability": "nonpayable",
      "type": "function"
    },
    {
      "inputs": [
        {
          "internalType": "uint256[]",
          "name": "tokenIds",
          "type": "uint256[]"
        }
      ],
      "name": "broadcastSelfTransferBatch",
      "outputs": [],
      "stateMutability": "nonpayable",
      "type": "function"
    },
    {
      "inputs": [
        {
          "internalType": "uint256",
          "name": "tokenId",
          "type": "uint256"
        }
      ],
      "name": "burn",
      "outputs": [],
      "stateMutability": "nonpayable",
      "type": "function"
    },
    {
      "inputs": [
        {
          "internalType": "uint256",
          "name": "tokenId",
          "type": "uint256"
        }
      ],
      "name": "getApproved",
      "outputs": [
        {
          "internalType": "address",
          "name": "",
          "type": "address"
        }
      ],
      "stateMutability": "view",
      "type": "function"
    },
    {
      "inputs": [
        {
          "internalType": "uint256",
          "name": "tokenId",
          "type": "uint256"
        }
      ],
      "name": "initOwner",
      "outputs": [
        {
          "internalType": "address",
          "name": "",
          "type": "address"
        }
      ],
      "stateMutability": "pure",
      "type": "function"
    },
    {
      "inputs": [
        {
          "internalType": "address",
          "name": "owner_",
          "type": "address"
        },
        {
          "internalType": "string",
          "name": "name_",
          "type": "string"
        },
        {
          "internalType": "string",
          "name": "symbol_",
          "type": "string"
        },
        {
          "internalType": "string",
          "name": "baseURI_",
          "type": "string"
        }
      ],
      "name": "initialize",
      "outputs": [],
      "stateMutability": "nonpayable",
      "type": "function"
    },
    {
      "inputs": [
        {
          "internalType": "address",
          "name": "owner",
          "type": "address"
        },
        {
          "internalType": "address",
          "name": "operator",
          "type": "address"
        }
      ],
      "name": "isApprovedForAll",
      "outputs": [
        {
          "internalType": "bool",
          "name": "",
          "type": "bool"
        }
      ],
      "stateMutability": "view",
      "type": "function"
    },
    {
      "inputs": [],
      "name": "isBaseURILocked",
      "outputs": [
        {
          "internalType": "bool",
          "name": "",
          "type": "bool"
        }
      ],
      "stateMutability": "view",
      "type": "function"
    },
    {
      "inputs": [
        {
          "internalType": "uint256",
          "name": "tokenId",
          "type": "uint256"
        }
      ],
      "name": "isBurned",
      "outputs": [
        {
          "internalType": "bool",
          "name": "",
          "type": "bool"
        }
      ],
      "stateMutability": "view",
      "type": "function"
    },
    {
      "inputs": [],
      "name": "lockBaseURI",
      "outputs": [],
      "stateMutability": "nonpayable",
      "type": "function"
    },
    {
      "inputs": [],
      "name": "name",
      "outputs": [
        {
          "internalType": "string",
          "name": "",
          "type": "string"
        }
      ],
      "stateMutability": "view",
      "type": "function"
    },
    {
      "inputs": [],
      "name": "owner",
      "outputs": [
        {
          "internalType": "address",
          "name": "",
          "type": "address"
        }
      ],
      "stateMutability": "view",
      "type": "function"
    },
    {
      "inputs": [
        {
          "internalType": "uint256",
          "name": "tokenId",
          "type": "uint256"
        }
      ],
      "name": "ownerOf",
      "outputs": [
        {
          "internalType": "address",
          "name": "",
          "type": "address"
        }
      ],
      "stateMutability": "view",
      "type": "function"
    },
    {
      "inputs": [],
      "name": "renounceOwnership",
      "outputs": [],
      "stateMutability": "nonpayable",
      "type": "function"
    },
    {
      "inputs": [
        {
          "internalType": "address",
          "name": "from",
          "type": "address"
        },
        {
          "internalType": "address",
          "name": "to",
          "type": "address"
        },
        {
          "internalType": "uint256",
          "name": "tokenId",
          "type": "uint256"
        }
      ],
      "name": "safeTransferFrom",
      "outputs": [],
      "stateMutability": "nonpayable",
      "type": "function"
    },
    {
      "inputs": [
        {
          "internalType": "address",
          "name": "from",
          "type": "address"
        },
        {
          "internalType": "address",
          "name": "to",
          "type": "address"
        },
        {
          "internalType": "uint256",
          "name": "tokenId",
          "type": "uint256"
        },
        {
          "internalType": "bytes",
          "name": "data",
          "type": "bytes"
        }
      ],
      "name": "safeTransferFrom",
      "outputs": [],
      "stateMutability": "nonpayable",
      "type": "function"
    },
    {
      "inputs": [
        {
          "internalType": "address",
          "name": "operator",
          "type": "address"
        },
        {
          "internalType": "bool",
          "name": "approved",
          "type": "bool"
        }
      ],
      "name": "setApprovalForAll",
      "outputs": [],
      "stateMutability": "nonpayable",
      "type": "function"
    },
    {
      "inputs": [
        {
          "internalType": "bytes4",
          "name": "interfaceId",
          "type": "bytes4"
        }
      ],
      "name": "supportsInterface",
      "outputs": [
        {
          "internalType": "bool",
          "name": "",
          "type": "bool"
        }
      ],
      "stateMutability": "view",
      "type": "function"
    },
    {
      "inputs": [],
      "name": "symbol",
      "outputs": [
        {
          "internalType": "string",
          "name": "",
          "type": "string"
        }
      ],
      "stateMutability": "view",
      "type": "function"
    },
    {
      "inputs": [
        {
          "internalType": "uint256",
          "name": "tokenId",
          "type": "uint256"
        }
      ],
      "name": "tokenURI",
      "outputs": [
        {
          "internalType": "string",
          "name": "",
          "type": "string"
        }
      ],
      "stateMutability": "view",
      "type": "function"
    },
    {
      "inputs": [
        {
          "internalType": "address",
          "name": "from",
          "type": "address"
        },
        {
          "internalType": "address",
          "name": "to",
          "type": "address"
        },
        {
          "internalType": "uint256",
          "name": "tokenId",
          "type": "uint256"
        }
      ],
      "name": "transferFrom",
      "outputs": [],
      "stateMutability": "nonpayable",
      "type": "function"
    },
    {
      "inputs": [
        {
          "internalType": "address",
          "name": "newOwner",
          "type": "address"
        }
      ],
      "name": "transferOwnership",
      "outputs": [],
      "stateMutability": "nonpayable",
      "type": "function"
    },
    {
      "inputs": [
        {
          "internalType": "string",
          "name": "newBaseURI",
          "type": "string"
        }
      ],
      "name": "updateBaseURI",
      "outputs": [],
      "stateMutability": "nonpayable",
      "type": "function"
    },
    {
      "inputs": [
        {
          "internalType": "string",
          "name": "newPrefix",
          "type": "string"
        },
        {
          "internalType": "string",
          "name": "newSuffix",
          "type": "string"
        }
      ],
      "name": "updateTokenIdAffixes",
      "outputs": [],
      "stateMutability": "nonpayable",
      "type": "function"
    },
    {
      "inputs": [
        {
          "internalType": "uint256",
          "name": "tokenId",
          "type": "uint256"
        }
      ],
      "name": "wasEverTransferred",
      "outputs": [
        {
          "internalType": "bool",
          "name": "",
          "type": "bool"
        }
      ],
      "stateMutability": "view",
      "type": "function"
    }
  ],
  "bytecode": "0x608060405234801561001057600080fd5b507ff0c57e16840df040f15088dc2f81fe391c3923bec73e23a9662efc9c229c6a00805468010000000000000000810460ff1615906001600160401b031660008115801561005b5750825b90506000826001600160401b031660011480156100775750303b155b905081158015610085575080155b156100a35760405163f92ee8a960e01b815260040160405180910390fd5b84546001600160401b031916600117855583156100d157845460ff60401b1916680100000000000000001785555b831561011757845460ff60401b19168555604051600181527fc7f505b2f371ae2175ee4913f4499e1f2633a7b5936321eed1cdaeb6115181d29060200160405180910390a15b5050505050611fd0806200012c6000396000f3fe608060405234801561001057600080fd5b50600436106101e55760003560e01c80636c0360eb1161010f578063b88d4fde116100a2578063e985e9c511610071578063e985e9c514610427578063f2fde38b1461043a578063f43199aa1461044d578063f9b7981e1461046a57600080fd5b8063b88d4fde146103cb578063c87b56dd146103de578063d4b89d8d146103f1578063db44fe071461040457600080fd5b80638da5cb5b116100de5780638da5cb5b1461036d578063931688cb1461039d57806395d89b41146103b0578063a22cb465146103b857600080fd5b80636c0360eb1461032b57806370a0823114610333578063715018a61461035857806378f1fefc1461036057600080fd5b806339c9b3051161018757806353df5c7c1161015657806353df5c7c146102ec57806357854508146102f45780635f1e6f6d146103055780636352211e1461031857600080fd5b806339c9b305146102a057806342842e0e146102b357806342966c68146102c657806346d2d496146102d957600080fd5b8063081812fc116101c3578063081812fc1461023c578063095ea7b314610267578063227a35791461027a57806323b872dd1461028d57600080fd5b806301ffc9a7146101ea578063065ab9a31461021257806306fdde0314610227575b600080fd5b6101fd6101f8366004611616565b61047d565b60405190151581526020015b60405180910390f35b610225610220366004611633565b6104de565b005b61022f6104f0565b604051610209919061169c565b61024f61024a366004611633565b610594565b6040516001600160a01b039091168152602001610209565b6102256102753660046116cb565b6105a9565b6102256102883660046116f5565b6105b8565b61022561029b36600461176a565b6105fd565b6102256102ae3660046116f5565b61068d565b6102256102c136600461176a565b6106d3565b6102256102d4366004611633565b6106ee565b6102256102e7366004611633565b610719565b610225610724565b61024f610302366004611633565b90565b610225610313366004611852565b610798565b61024f610326366004611633565b610955565b61022f610960565b61034a6103413660046118eb565b50600160601b90565b604051908152602001610209565b61022561096f565b6000546101fd9060ff1681565b7f9016d09d72d40fdae2fd8ceac6b6234c7706214fd39c1cd1e609a0528c199300546001600160a01b031661024f565b6102256103ab36600461194f565b610983565b61022f6109fa565b6102256103c6366004611991565b610a39565b6102256103d93660046119cd565b610a44565b61022f6103ec366004611633565b610a5b565b6101fd6103ff366004611633565b610ac9565b6101fd610412366004611633565b60016020526000908152604090205460ff1681565b6101fd610435366004611a3d565b610afc565b6102256104483660046118eb565b610b49565b610455600281565b60405163ffffffff9091168152602001610209565b610225610478366004611a70565b610b84565b60006001600160e01b0319821663418fb25560e01b14806104ae57506001600160e01b03198216639832f94160e01b145b806104c957506001600160e01b031982166323e0ddb160e21b145b806104d857506104d882610c0f565b92915050565b6104ed8180610c5f565b610c5f565b50565b600080516020611f7b833981519152805460609190819061051090611adc565b80601f016020809104026020016040519081016040528092919081815260200182805461053c90611adc565b80156105895780601f1061055e57610100808354040283529160200191610589565b820191906000526020600020905b81548152906001019060200180831161056c57829003601f168201915b505050505091505090565b600061059f82610cce565b506104d882610d06565b6105b4828233610d40565b5050565b60005b818110156105f8576105e68383838181106105d8576105d8611b16565b905060200201356000610c5f565b806105f081611b2c565b9150506105bb565b505050565b6001600160a01b03821661062c57604051633250574960e11b8152600060048201526024015b60405180910390fd5b6000610639838333610d4d565b9050836001600160a01b0316816001600160a01b031614610687576040516364283d7b60e01b81526001600160a01b0380861660048301526024820184905282166044820152606401610623565b50505050565b60005b818110156105f85760008383838181106106ac576106ac611b16565b9050602002013590506106c0816104e88390565b50806106cb81611b2c565b915050610690565b6105f883838360405180602001604052806000815250610a44565b6106fa60008233610d4d565b506000908152600160208190526040909120805460ff19169091179055565b6104ed816000610c5f565b61072c610e57565b60005460ff161561075057604051633eedd6ab60e21b815260040160405180910390fd5b6000805460ff191660011790556040517f0bca4aaa33018fc07dbe996053fc5b1f6ed8fbcce1261967821bcd7d4e95cd8c9061078e90600290611b53565b60405180910390a1565b7ff0c57e16840df040f15088dc2f81fe391c3923bec73e23a9662efc9c229c6a008054600160401b810460ff16159067ffffffffffffffff166000811580156107de5750825b905060008267ffffffffffffffff1660011480156107fb5750303b155b905081158015610809575080155b156108275760405163f92ee8a960e01b815260040160405180910390fd5b845467ffffffffffffffff19166001178555831561085157845460ff60401b1916600160401b1785555b61085b8888610eb2565b61086489610ec4565b60026108708782611c2c565b5060408051808201909152600b81526a08ecadccae4c2d896caf2560ab1b60208201526003906108a09082611c2c565b506040805180820190915260018152602960f81b60208201526004906108c69082611c2c565b507fb4e1dc82d38c41e054f095ea5f4fc1d08bd9b949513f8ed2544ab8b47b1a824330878a8a6040516108fc9493929190611cec565b60405180910390a1831561094a57845460ff60401b19168555604051600181527fc7f505b2f371ae2175ee4913f4499e1f2633a7b5936321eed1cdaeb6115181d29060200160405180910390a15b505050505050505050565b60006104d882610cce565b606061096a610ed5565b905090565b610977610e57565b6109816000610f67565b565b61098b610e57565b60005460ff16156109af57604051633eedd6ab60e21b815260040160405180910390fd5b60026109bc828483611d41565b507fe12d4d4a70d9b5c313db41dbfde977d2932dd59c55fca4a4af5181b2397c172582826040516109ee929190611e2a565b60405180910390a15050565b7f80bb2b638cc20bc4d0a60d66940f3ab4a00c1d7b313497ca82fb0b4ab00793018054606091600080516020611f7b8339815191529161051090611adc565b6105b4338383610fd8565b610a4f8484846105fd565b61068784848484611089565b6060610a6682610cce565b506000610a71610ed5565b90506000815111610a915760405180602001604052806000815250610ac2565b806003610a9d856111b2565b6004604051602001610ab29493929190611eb1565b6040516020818303038152906040525b9392505050565b600080610ad583611245565b6001600160a01b03161415806104d857505060009081526001602052604090205460ff1690565b6001600160a01b0391821660009081527f80bb2b638cc20bc4d0a60d66940f3ab4a00c1d7b313497ca82fb0b4ab00793056020908152604080832093909416825291909152205460ff1690565b610b51610e57565b6001600160a01b038116610b7b57604051631e4fbdf760e01b815260006004820152602401610623565b6104ed81610f67565b610b8c610e57565b60005460ff1615610bb057604051633eedd6ab60e21b815260040160405180910390fd5b6003610bbd848683611d41565b506004610bcb828483611d41565b507f59de06b481abf362e010062c9251b68540649936c6b42c718d25ec2e895cbef384848484604051610c019493929190611ef9565b60405180910390a150505050565b60006001600160e01b031982166380ac58cd60e01b1480610c4057506001600160e01b03198216635b5e139f60e01b145b806104d857506301ffc9a760e01b6001600160e01b03198316146104d8565b610c6882610ac9565b15610c8957604051632af42a8960e01b815260048101839052602401610623565b81806001600160a01b0316826001600160a01b03167fddf252ad1be2c89b69c2b068fc378daa952ba7f163c4a11628f55a4df523b3ef60405160405180910390a45050565b600080610cda8361127f565b90506001600160a01b0381166104d857604051637e27328960e01b815260048101849052602401610623565b60009081527f80bb2b638cc20bc4d0a60d66940f3ab4a00c1d7b313497ca82fb0b4ab007930460205260409020546001600160a01b031690565b6105f883838360016112c6565b6000600080516020611f7b83398151915281610d688561127f565b90506001600160a01b03841615610d8457610d848185876113dc565b6001600160a01b03811615610dc457610da16000866000806112c6565b6001600160a01b0381166000908152600383016020526040902080546000190190555b6001600160a01b03861615610df5576001600160a01b03861660009081526003830160205260409020805460010190555b600085815260028301602052604080822080546001600160a01b0319166001600160a01b038a811691821790925591518893918516917fddf252ad1be2c89b69c2b068fc378daa952ba7f163c4a11628f55a4df523b3ef91a495945050505050565b33610e897f9016d09d72d40fdae2fd8ceac6b6234c7706214fd39c1cd1e609a0528c199300546001600160a01b031690565b6001600160a01b0316146109815760405163118cdaa760e01b8152336004820152602401610623565b610eba611440565b6105b48282611489565b610ecc611440565b6104ed816114ba565b606060028054610ee490611adc565b80601f0160208091040260200160405190810160405280929190818152602001828054610f1090611adc565b8015610f5d5780601f10610f3257610100808354040283529160200191610f5d565b820191906000526020600020905b815481529060010190602001808311610f4057829003601f168201915b5050505050905090565b7f9016d09d72d40fdae2fd8ceac6b6234c7706214fd39c1cd1e609a0528c19930080546001600160a01b031981166001600160a01b03848116918217845560405192169182907f8be0079c531659141344cd1fd0a4f28419497f9722a3daafe3b4186f6b6457e090600090a3505050565b600080516020611f7b8339815191526001600160a01b03831661101957604051630b61174360e31b81526001600160a01b0384166004820152602401610623565b6001600160a01b038481166000818152600584016020908152604080832094881680845294825291829020805460ff191687151590811790915591519182527f17307eab39ab6107e8899845ad3d59bd9653f200f220920489ca2b5937696c31910160405180910390a350505050565b6001600160a01b0383163b1561068757604051630a85bd0160e11b81526001600160a01b0384169063150b7a02906110cb903390889087908790600401611f20565b6020604051808303816000875af1925050508015611106575060408051601f3d908101601f1916820190925261110391810190611f5d565b60015b61116f573d808015611134576040519150601f19603f3d011682016040523d82523d6000602084013e611139565b606091505b50805160000361116757604051633250574960e11b81526001600160a01b0385166004820152602401610623565b805181602001fd5b6001600160e01b03198116630a85bd0160e11b146111ab57604051633250574960e11b81526001600160a01b0385166004820152602401610623565b5050505050565b606060006111bf836114c2565b600101905060008167ffffffffffffffff8111156111df576111df6117a6565b6040519080825280601f01601f191660200182016040528015611209576020820181803683370190505b5090508181016020015b600019016f181899199a1a9b1b9c1cb0b131b232b360811b600a86061a8153600a850494508461121357509392505050565b60009081527f80bb2b638cc20bc4d0a60d66940f3ab4a00c1d7b313497ca82fb0b4ab007930260205260409020546001600160a01b031690565b60008181526001602052604081205460ff161561129e57506000919050565b60006112a983611245565b90506001600160a01b038116156112c05780610ac2565b82610ac2565b600080516020611f7b83398151915281806112e957506001600160a01b03831615155b156113ab5760006112f985610cce565b90506001600160a01b038416158015906113255750836001600160a01b0316816001600160a01b031614155b801561133857506113368185610afc565b155b156113615760405163a9fbf51f60e01b81526001600160a01b0385166004820152602401610623565b82156113a95784866001600160a01b0316826001600160a01b03167f8c5be1e5ebec7d5bd14f71427d1e84f3dd0314c0f7b2291e5b200ac8c7c3b92560405160405180910390a45b505b600093845260040160205250506040902080546001600160a01b0319166001600160a01b0392909216919091179055565b6113e783838361159a565b6105f8576001600160a01b03831661141557604051637e27328960e01b815260048101829052602401610623565b60405163177e802f60e01b81526001600160a01b038316600482015260248101829052604401610623565b7ff0c57e16840df040f15088dc2f81fe391c3923bec73e23a9662efc9c229c6a0054600160401b900460ff1661098157604051631afcd79f60e31b815260040160405180910390fd5b611491611440565b600080516020611f7b833981519152806114ab8482611c2c565b50600181016106878382611c2c565b610b51611440565b60008072184f03e93ff9f4daa797ed6e38ed64bf6a1f0160401b83106115015772184f03e93ff9f4daa797ed6e38ed64bf6a1f0160401b830492506040015b6d04ee2d6d415b85acef8100000000831061152d576d04ee2d6d415b85acef8100000000830492506020015b662386f26fc10000831061154b57662386f26fc10000830492506010015b6305f5e1008310611563576305f5e100830492506008015b612710831061157757612710830492506004015b60648310611589576064830492506002015b600a83106104d85760010192915050565b60006001600160a01b038316158015906115f85750826001600160a01b0316846001600160a01b031614806115d457506115d48484610afc565b806115f85750826001600160a01b03166115ed83610d06565b6001600160a01b0316145b949350505050565b6001600160e01b0319811681146104ed57600080fd5b60006020828403121561162857600080fd5b8135610ac281611600565b60006020828403121561164557600080fd5b5035919050565b60005b8381101561166757818101518382015260200161164f565b50506000910152565b6000815180845261168881602086016020860161164c565b601f01601f19169290920160200192915050565b602081526000610ac26020830184611670565b80356001600160a01b03811681146116c657600080fd5b919050565b600080604083850312156116de57600080fd5b6116e7836116af565b946020939093013593505050565b6000806020838503121561170857600080fd5b823567ffffffffffffffff8082111561172057600080fd5b818501915085601f83011261173457600080fd5b81358181111561174357600080fd5b8660208260051b850101111561175857600080fd5b60209290920196919550909350505050565b60008060006060848603121561177f57600080fd5b611788846116af565b9250611796602085016116af565b9150604084013590509250925092565b634e487b7160e01b600052604160045260246000fd5b600067ffffffffffffffff808411156117d7576117d76117a6565b604051601f8501601f19908116603f011681019082821181831017156117ff576117ff6117a6565b8160405280935085815286868601111561181857600080fd5b858560208301376000602087830101525050509392505050565b600082601f83011261184357600080fd5b610ac2838335602085016117bc565b6000806000806080858703121561186857600080fd5b611871856116af565b9350602085013567ffffffffffffffff8082111561188e57600080fd5b61189a88838901611832565b945060408701359150808211156118b057600080fd5b6118bc88838901611832565b935060608701359150808211156118d257600080fd5b506118df87828801611832565b91505092959194509250565b6000602082840312156118fd57600080fd5b610ac2826116af565b60008083601f84011261191857600080fd5b50813567ffffffffffffffff81111561193057600080fd5b60208301915083602082850101111561194857600080fd5b9250929050565b6000806020838503121561196257600080fd5b823567ffffffffffffffff81111561197957600080fd5b61198585828601611906565b90969095509350505050565b600080604083850312156119a457600080fd5b6119ad836116af565b9150602083013580151581146119c257600080fd5b809150509250929050565b600080600080608085870312156119e357600080fd5b6119ec856116af565b93506119fa602086016116af565b925060408501359150606085013567ffffffffffffffff811115611a1d57600080fd5b8501601f81018713611a2e57600080fd5b6118df878235602084016117bc565b60008060408385031215611a5057600080fd5b611a59836116af565b9150611a67602084016116af565b90509250929050565b60008060008060408587031215611a8657600080fd5b843567ffffffffffffffff80821115611a9e57600080fd5b611aaa88838901611906565b90965094506020870135915080821115611ac357600080fd5b50611ad087828801611906565b95989497509550505050565b600181811c90821680611af057607f821691505b602082108103611b1057634e487b7160e01b600052602260045260246000fd5b50919050565b634e487b7160e01b600052603260045260246000fd5b600060018201611b4c57634e487b7160e01b600052601160045260246000fd5b5060010190565b6000602080835260008454611b6781611adc565b80848701526040600180841660008114611b885760018114611ba257611bd0565b60ff1985168984015283151560051b890183019550611bd0565b896000528660002060005b85811015611bc85781548b8201860152908301908801611bad565b8a0184019650505b509398975050505050505050565b601f8211156105f857600081815260208120601f850160051c81016020861015611c055750805b601f850160051c820191505b81811015611c2457828155600101611c11565b505050505050565b815167ffffffffffffffff811115611c4657611c466117a6565b611c5a81611c548454611adc565b84611bde565b602080601f831160018114611c8f5760008415611c775750858301515b600019600386901b1c1916600185901b178555611c24565b600085815260208120601f198616915b82811015611cbe57888601518255948401946001909101908401611c9f565b5085821015611cdc5787850151600019600388901b60f8161c191681555b5050505050600190811b01905550565b6001600160a01b0385168152608060208201819052600090611d1090830186611670565b8281036040840152611d228186611670565b90508281036060840152611d368185611670565b979650505050505050565b67ffffffffffffffff831115611d5957611d596117a6565b611d6d83611d678354611adc565b83611bde565b6000601f841160018114611da15760008515611d895750838201355b600019600387901b1c1916600186901b1783556111ab565b600083815260209020601f19861690835b82811015611dd25786850135825560209485019460019092019101611db2565b5086821015611def5760001960f88860031b161c19848701351681555b505060018560011b0183555050505050565b81835281816020850137506000828201602090810191909152601f909101601f19169091010190565b6020815260006115f8602083018486611e01565b60008154611e4b81611adc565b60018281168015611e635760018114611e7857611ea7565b60ff1984168752821515830287019450611ea7565b8560005260208060002060005b85811015611e9e5781548a820152908401908201611e85565b50505082870194505b5050505092915050565b60008551611ec3818460208a0161164c565b611ecf81840187611e3e565b90508451611ee181836020890161164c565b611eed81830186611e3e565b98975050505050505050565b604081526000611f0d604083018688611e01565b8281036020840152611d36818587611e01565b6001600160a01b0385811682528416602082015260408101839052608060608201819052600090611f5390830184611670565b9695505050505050565b600060208284031215611f6f57600080fd5b8151610ac28161160056fe80bb2b638cc20bc4d0a60d66940f3ab4a00c1d7b313497ca82fb0b4ab0079300a2646970667358221220987909d13983a1de89713bc778888445b77d54ac37206c1dce2ac0231c40732864736f6c63430008140033",
  "linkReferences": {},
  "deployedLinkReferences": {}
}